{
  "_format": "hh-sol-artifact-1",
  "contractName": "VeraxERC721A",
  "sourceName": "contracts/VeraxERC721A.sol",
  "abi": [
    {
      "inputs": [
        {
          "internalType": "address[]",
          "name": "_team",
          "type": "address[]"
        },
        {
          "internalType": "uint256[]",
          "name": "_teamShares",
          "type": "uint256[]"
        },
        {
          "internalType": "bytes32",
          "name": "_merkleRoot",
          "type": "bytes32"
        },
        {
          "internalType": "string",
          "name": "_baseURI",
          "type": "string"
        }
      ],
      "stateMutability": "nonpayable",
      "type": "constructor"
    },
    {
      "inputs": [],
      "name": "ApprovalCallerNotOwnerNorApproved",
      "type": "error"
    },
    {
      "inputs": [],
      "name": "ApprovalQueryForNonexistentToken",
      "type": "error"
    },
    {
      "inputs": [],
      "name": "ApprovalToCurrentOwner",
      "type": "error"
    },
    {
      "inputs": [],
      "name": "ApproveToCaller",
      "type": "error"
    },
    {
      "inputs": [],
      "name": "BalanceQueryForZeroAddress",
      "type": "error"
    },
    {
      "inputs": [],
      "name": "MintToZeroAddress",
      "type": "error"
    },
    {
      "inputs": [],
      "name": "MintZeroQuantity",
      "type": "error"
    },
    {
      "inputs": [],
      "name": "OwnerIndexOutOfBounds",
      "type": "error"
    },
    {
      "inputs": [],
      "name": "OwnerQueryForNonexistentToken",
      "type": "error"
    },
    {
      "inputs": [],
      "name": "TokenIndexOutOfBounds",
      "type": "error"
    },
    {
      "inputs": [],
      "name": "TransferCallerNotOwnerNorApproved",
      "type": "error"
    },
    {
      "inputs": [],
      "name": "TransferFromIncorrectOwner",
      "type": "error"
    },
    {
      "inputs": [],
      "name": "TransferToNonERC721ReceiverImplementer",
      "type": "error"
    },
    {
      "inputs": [],
      "name": "TransferToZeroAddress",
      "type": "error"
    },
    {
      "anonymous": false,
      "inputs": [
        {
          "indexed": true,
          "internalType": "address",
          "name": "owner",
          "type": "address"
        },
        {
          "indexed": true,
          "internalType": "address",
          "name": "approved",
          "type": "address"
        },
        {
          "indexed": true,
          "internalType": "uint256",
          "name": "tokenId",
          "type": "uint256"
        }
      ],
      "name": "Approval",
      "type": "event"
    },
    {
      "anonymous": false,
      "inputs": [
        {
          "indexed": true,
          "internalType": "address",
          "name": "owner",
          "type": "address"
        },
        {
          "indexed": true,
          "internalType": "address",
          "name": "operator",
          "type": "address"
        },
        {
          "indexed": false,
          "internalType": "bool",
          "name": "approved",
          "type": "bool"
        }
      ],
      "name": "ApprovalForAll",
      "type": "event"
    },
    {
      "anonymous": false,
      "inputs": [
        {
          "indexed": true,
          "internalType": "contract IERC20",
          "name": "token",
          "type": "address"
        },
        {
          "indexed": false,
          "internalType": "address",
          "name": "to",
          "type": "address"
        },
        {
          "indexed": false,
          "internalType": "uint256",
          "name": "amount",
          "type": "uint256"
        }
      ],
      "name": "ERC20PaymentReleased",
      "type": "event"
    },
    {
      "anonymous": false,
      "inputs": [
        {
          "indexed": true,
          "internalType": "address",
          "name": "previousOwner",
          "type": "address"
        },
        {
          "indexed": true,
          "internalType": "address",
          "name": "newOwner",
          "type": "address"
        }
      ],
      "name": "OwnershipTransferred",
      "type": "event"
    },
    {
      "anonymous": false,
      "inputs": [
        {
          "indexed": false,
          "internalType": "address",
          "name": "account",
          "type": "address"
        },
        {
          "indexed": false,
          "internalType": "uint256",
          "name": "shares",
          "type": "uint256"
        }
      ],
      "name": "PayeeAdded",
      "type": "event"
    },
    {
      "anonymous": false,
      "inputs": [
        {
          "indexed": false,
          "internalType": "address",
          "name": "from",
          "type": "address"
        },
        {
          "indexed": false,
          "internalType": "uint256",
          "name": "amount",
          "type": "uint256"
        }
      ],
      "name": "PaymentReceived",
      "type": "event"
    },
    {
      "anonymous": false,
      "inputs": [
        {
          "indexed": false,
          "internalType": "address",
          "name": "to",
          "type": "address"
        },
        {
          "indexed": false,
          "internalType": "uint256",
          "name": "amount",
          "type": "uint256"
        }
      ],
      "name": "PaymentReleased",
      "type": "event"
    },
    {
      "anonymous": false,
      "inputs": [
        {
          "indexed": true,
          "internalType": "address",
          "name": "from",
          "type": "address"
        },
        {
          "indexed": true,
          "internalType": "address",
          "name": "to",
          "type": "address"
        },
        {
          "indexed": true,
          "internalType": "uint256",
          "name": "tokenId",
          "type": "uint256"
        }
      ],
      "name": "Transfer",
      "type": "event"
    },
    {
      "inputs": [
        {
          "internalType": "address",
          "name": "",
          "type": "address"
        }
      ],
      "name": "amountNFTsperWalletWhitelistSale",
      "outputs": [
        {
          "internalType": "uint256",
          "name": "",
          "type": "uint256"
        }
      ],
      "stateMutability": "view",
      "type": "function"
    },
    {
      "inputs": [
        {
          "internalType": "address",
          "name": "to",
          "type": "address"
        },
        {
          "internalType": "uint256",
          "name": "tokenId",
          "type": "uint256"
        }
      ],
      "name": "approve",
      "outputs": [],
      "stateMutability": "nonpayable",
      "type": "function"
    },
    {
      "inputs": [
        {
          "internalType": "address",
          "name": "owner",
          "type": "address"
        }
      ],
      "name": "balanceOf",
      "outputs": [
        {
          "internalType": "uint256",
          "name": "",
          "type": "uint256"
        }
      ],
      "stateMutability": "view",
      "type": "function"
    },
    {
      "inputs": [],
      "name": "baseURI",
      "outputs": [
        {
          "internalType": "string",
          "name": "",
          "type": "string"
        }
      ],
      "stateMutability": "view",
      "type": "function"
    },
    {
      "inputs": [
        {
          "internalType": "uint256",
          "name": "tokenId",
          "type": "uint256"
        }
      ],
      "name": "getApproved",
      "outputs": [
        {
          "internalType": "address",
          "name": "",
          "type": "address"
        }
      ],
      "stateMutability": "view",
      "type": "function"
    },
    {
      "inputs": [
        {
          "internalType": "address[]",
          "name": "_to",
          "type": "address[]"
        }
      ],
      "name": "gift",
      "outputs": [],
      "stateMutability": "nonpayable",
      "type": "function"
    },
    {
      "inputs": [
        {
          "internalType": "address",
          "name": "owner",
          "type": "address"
        },
        {
          "internalType": "address",
          "name": "operator",
          "type": "address"
        }
      ],
      "name": "isApprovedForAll",
      "outputs": [
        {
          "internalType": "bool",
          "name": "",
          "type": "bool"
        }
      ],
      "stateMutability": "view",
      "type": "function"
    },
    {
      "inputs": [],
      "name": "merkleRoot",
      "outputs": [
        {
          "internalType": "bytes32",
          "name": "",
          "type": "bytes32"
        }
      ],
      "stateMutability": "view",
      "type": "function"
    },
    {
      "inputs": [],
      "name": "name",
      "outputs": [
        {
          "internalType": "string",
          "name": "",
          "type": "string"
        }
      ],
      "stateMutability": "view",
      "type": "function"
    },
    {
      "inputs": [],
      "name": "owner",
      "outputs": [
        {
          "internalType": "address",
          "name": "",
          "type": "address"
        }
      ],
      "stateMutability": "view",
      "type": "function"
    },
    {
      "inputs": [
        {
          "internalType": "uint256",
          "name": "tokenId",
          "type": "uint256"
        }
      ],
      "name": "ownerOf",
      "outputs": [
        {
          "internalType": "address",
          "name": "",
          "type": "address"
        }
      ],
      "stateMutability": "view",
      "type": "function"
    },
    {
      "inputs": [
        {
          "internalType": "uint256",
          "name": "index",
          "type": "uint256"
        }
      ],
      "name": "payee",
      "outputs": [
        {
          "internalType": "address",
          "name": "",
          "type": "address"
        }
      ],
      "stateMutability": "view",
      "type": "function"
    },
    {
      "inputs": [
        {
          "internalType": "address",
          "name": "_account",
          "type": "address"
        },
        {
          "internalType": "uint256",
          "name": "_quantity",
          "type": "uint256"
        }
      ],
      "name": "publicSaleMint",
      "outputs": [],
      "stateMutability": "payable",
      "type": "function"
    },
    {
      "inputs": [],
      "name": "publicSalePrice",
      "outputs": [
        {
          "internalType": "uint256",
          "name": "",
          "type": "uint256"
        }
      ],
      "stateMutability": "view",
      "type": "function"
    },
    {
      "inputs": [
        {
          "internalType": "address",
          "name": "account",
          "type": "address"
        }
      ],
      "name": "releasable",
      "outputs": [
        {
          "internalType": "uint256",
          "name": "",
          "type": "uint256"
        }
      ],
      "stateMutability": "view",
      "type": "function"
    },
    {
      "inputs": [
        {
          "internalType": "contract IERC20",
          "name": "token",
          "type": "address"
        },
        {
          "internalType": "address",
          "name": "account",
          "type": "address"
        }
      ],
      "name": "releasable",
      "outputs": [
        {
          "internalType": "uint256",
          "name": "",
          "type": "uint256"
        }
      ],
      "stateMutability": "view",
      "type": "function"
    },
    {
      "inputs": [
        {
          "internalType": "address payable",
          "name": "account",
          "type": "address"
        }
      ],
      "name": "release",
      "outputs": [],
      "stateMutability": "nonpayable",
      "type": "function"
    },
    {
      "inputs": [
        {
          "internalType": "contract IERC20",
          "name": "token",
          "type": "address"
        },
        {
          "internalType": "address",
          "name": "account",
          "type": "address"
        }
      ],
      "name": "release",
      "outputs": [],
      "stateMutability": "nonpayable",
      "type": "function"
    },
    {
      "inputs": [],
      "name": "releaseAll",
      "outputs": [],
      "stateMutability": "nonpayable",
      "type": "function"
    },
    {
      "inputs": [
        {
          "internalType": "contract IERC20",
          "name": "token",
          "type": "address"
        },
        {
          "internalType": "address",
          "name": "account",
          "type": "address"
        }
      ],
      "name": "released",
      "outputs": [
        {
          "internalType": "uint256",
          "name": "",
          "type": "uint256"
        }
      ],
      "stateMutability": "view",
      "type": "function"
    },
    {
      "inputs": [
        {
          "internalType": "address",
          "name": "account",
          "type": "address"
        }
      ],
      "name": "released",
      "outputs": [
        {
          "internalType": "uint256",
          "name": "",
          "type": "uint256"
        }
      ],
      "stateMutability": "view",
      "type": "function"
    },
    {
      "inputs": [],
      "name": "renounceOwnership",
      "outputs": [],
      "stateMutability": "nonpayable",
      "type": "function"
    },
    {
      "inputs": [
        {
          "internalType": "address",
          "name": "from",
          "type": "address"
        },
        {
          "internalType": "address",
          "name": "to",
          "type": "address"
        },
        {
          "internalType": "uint256",
          "name": "tokenId",
          "type": "uint256"
        }
      ],
      "name": "safeTransferFrom",
      "outputs": [],
      "stateMutability": "nonpayable",
      "type": "function"
    },
    {
      "inputs": [
        {
          "internalType": "address",
          "name": "from",
          "type": "address"
        },
        {
          "internalType": "address",
          "name": "to",
          "type": "address"
        },
        {
          "internalType": "uint256",
          "name": "tokenId",
          "type": "uint256"
        },
        {
          "internalType": "bytes",
          "name": "_data",
          "type": "bytes"
        }
      ],
      "name": "safeTransferFrom",
      "outputs": [],
      "stateMutability": "nonpayable",
      "type": "function"
    },
    {
      "inputs": [],
      "name": "sellingStep",
      "outputs": [
        {
          "internalType": "enum VeraxERC721A.Step",
          "name": "",
          "type": "uint8"
        }
      ],
      "stateMutability": "view",
      "type": "function"
    },
    {
      "inputs": [
        {
          "internalType": "address",
          "name": "operator",
          "type": "address"
        },
        {
          "internalType": "bool",
          "name": "approved",
          "type": "bool"
        }
      ],
      "name": "setApprovalForAll",
      "outputs": [],
      "stateMutability": "nonpayable",
      "type": "function"
    },
    {
      "inputs": [
        {
          "internalType": "string",
          "name": "_baseURI",
          "type": "string"
        }
      ],
      "name": "setBaseUri",
      "outputs": [],
      "stateMutability": "nonpayable",
      "type": "function"
    },
    {
      "inputs": [
        {
          "internalType": "bytes32",
          "name": "_merkleRoot",
          "type": "bytes32"
        }
      ],
      "name": "setMerkleRoot",
      "outputs": [],
      "stateMutability": "nonpayable",
      "type": "function"
    },
    {
      "inputs": [
        {
          "internalType": "uint256",
          "name": "_publicSalePrice",
          "type": "uint256"
        }
      ],
      "name": "setPublicSalePrice",
      "outputs": [],
      "stateMutability": "nonpayable",
      "type": "function"
    },
    {
      "inputs": [
        {
          "internalType": "uint256",
          "name": "_step",
          "type": "uint256"
        }
      ],
      "name": "setStep",
      "outputs": [],
      "stateMutability": "nonpayable",
      "type": "function"
    },
    {
      "inputs": [
        {
          "internalType": "uint256",
          "name": "_wlSalePrice",
          "type": "uint256"
        }
      ],
      "name": "setWlSalePrice",
      "outputs": [],
      "stateMutability": "nonpayable",
      "type": "function"
    },
    {
      "inputs": [
        {
          "internalType": "address",
          "name": "account",
          "type": "address"
        }
      ],
      "name": "shares",
      "outputs": [
        {
          "internalType": "uint256",
          "name": "",
          "type": "uint256"
        }
      ],
      "stateMutability": "view",
      "type": "function"
    },
    {
      "inputs": [
        {
          "internalType": "bytes4",
          "name": "interfaceId",
          "type": "bytes4"
        }
      ],
      "name": "supportsInterface",
      "outputs": [
        {
          "internalType": "bool",
          "name": "",
          "type": "bool"
        }
      ],
      "stateMutability": "view",
      "type": "function"
    },
    {
      "inputs": [],
      "name": "symbol",
      "outputs": [
        {
          "internalType": "string",
          "name": "",
          "type": "string"
        }
      ],
      "stateMutability": "view",
      "type": "function"
    },
    {
      "inputs": [
        {
          "internalType": "uint256",
          "name": "index",
          "type": "uint256"
        }
      ],
      "name": "tokenByIndex",
      "outputs": [
        {
          "internalType": "uint256",
          "name": "",
          "type": "uint256"
        }
      ],
      "stateMutability": "view",
      "type": "function"
    },
    {
      "inputs": [
        {
          "internalType": "address",
          "name": "owner",
          "type": "address"
        },
        {
          "internalType": "uint256",
          "name": "index",
          "type": "uint256"
        }
      ],
      "name": "tokenOfOwnerByIndex",
      "outputs": [
        {
          "internalType": "uint256",
          "name": "",
          "type": "uint256"
        }
      ],
      "stateMutability": "view",
      "type": "function"
    },
    {
      "inputs": [
        {
          "internalType": "uint256",
          "name": "_tokenId",
          "type": "uint256"
        }
      ],
      "name": "tokenURI",
      "outputs": [
        {
          "internalType": "string",
          "name": "",
          "type": "string"
        }
      ],
      "stateMutability": "view",
      "type": "function"
    },
    {
      "inputs": [
        {
          "internalType": "contract IERC20",
          "name": "token",
          "type": "address"
        }
      ],
      "name": "totalReleased",
      "outputs": [
        {
          "internalType": "uint256",
          "name": "",
          "type": "uint256"
        }
      ],
      "stateMutability": "view",
      "type": "function"
    },
    {
      "inputs": [],
      "name": "totalReleased",
      "outputs": [
        {
          "internalType": "uint256",
          "name": "",
          "type": "uint256"
        }
      ],
      "stateMutability": "view",
      "type": "function"
    },
    {
      "inputs": [],
      "name": "totalShares",
      "outputs": [
        {
          "internalType": "uint256",
          "name": "",
          "type": "uint256"
        }
      ],
      "stateMutability": "view",
      "type": "function"
    },
    {
      "inputs": [],
      "name": "totalSupply",
      "outputs": [
        {
          "internalType": "uint256",
          "name": "",
          "type": "uint256"
        }
      ],
      "stateMutability": "view",
      "type": "function"
    },
    {
      "inputs": [
        {
          "internalType": "address",
          "name": "from",
          "type": "address"
        },
        {
          "internalType": "address",
          "name": "to",
          "type": "address"
        },
        {
          "internalType": "uint256",
          "name": "tokenId",
          "type": "uint256"
        }
      ],
      "name": "transferFrom",
      "outputs": [],
      "stateMutability": "nonpayable",
      "type": "function"
    },
    {
      "inputs": [
        {
          "internalType": "address",
          "name": "newOwner",
          "type": "address"
        }
      ],
      "name": "transferOwnership",
      "outputs": [],
      "stateMutability": "nonpayable",
      "type": "function"
    },
    {
      "inputs": [
        {
          "internalType": "address",
          "name": "_account",
          "type": "address"
        },
        {
          "internalType": "uint256",
          "name": "_quantity",
          "type": "uint256"
        },
        {
          "internalType": "bytes32[]",
          "name": "_proof",
          "type": "bytes32[]"
        }
      ],
      "name": "whitelistMint",
      "outputs": [],
      "stateMutability": "payable",
      "type": "function"
    },
    {
      "inputs": [],
      "name": "wlSalePrice",
      "outputs": [
        {
          "internalType": "uint256",
          "name": "",
          "type": "uint256"
        }
      ],
      "stateMutability": "view",
      "type": "function"
    },
    {
      "stateMutability": "payable",
      "type": "receive"
    }
  ],
  "bytecode": "0x6080604052670214e8348c4f00006010556702c68af0bb1400006011553480156200002957600080fd5b5060405162003690380380620036908339810160408190526200004c916200068f565b8383604051806040016040528060058152602001640accae4c2f60db1b815250604051806040016040528060058152602001640ac8aa482b60db1b815250620000a46200009e6200023060201b60201c565b62000234565b8151620000b990600290602085019062000472565b508051620000cf90600390602084019062000472565b5050508051825114620001445760405162461bcd60e51b815260206004820152603260248201527f5061796d656e7453706c69747465723a2070617965657320616e6420736861726044820152710cae640d8cadccee8d040dad2e6dac2e8c6d60731b60648201526084015b60405180910390fd5b6000825111620001975760405162461bcd60e51b815260206004820152601a60248201527f5061796d656e7453706c69747465723a206e6f2070617965657300000000000060448201526064016200013b565b60005b82518110156200020357620001ee838281518110620001bd57620001bd6200079e565b6020026020010151838381518110620001da57620001da6200079e565b60200260200101516200028460201b60201c565b80620001fa81620007ca565b9150506200019a565b505050601282905580516200022090601390602084019062000472565b5050915160145550620008409050565b3390565b600080546001600160a01b038381166001600160a01b0319831681178455604051919092169283917f8be0079c531659141344cd1fd0a4f28419497f9722a3daafe3b4186f6b6457e09190a35050565b6001600160a01b038216620002f15760405162461bcd60e51b815260206004820152602c60248201527f5061796d656e7453706c69747465723a206163636f756e74206973207468652060448201526b7a65726f206164647265737360a01b60648201526084016200013b565b60008111620003435760405162461bcd60e51b815260206004820152601d60248201527f5061796d656e7453706c69747465723a2073686172657320617265203000000060448201526064016200013b565b6001600160a01b0382166000908152600a602052604090205415620003bf5760405162461bcd60e51b815260206004820152602b60248201527f5061796d656e7453706c69747465723a206163636f756e7420616c726561647960448201526a206861732073686172657360a81b60648201526084016200013b565b600c8054600181019091557fdf6966c971051c3d54ec59162606531493a51404a002842f56009d7e5cf4a8c70180546001600160a01b0319166001600160a01b0384169081179091556000908152600a6020526040902081905560085462000429908290620007e8565b600855604080516001600160a01b0384168152602081018390527f40c340f65e17194d14ddddb073d3c9f888e3cb52b5aae0c6c7706b4fbc905fac910160405180910390a15050565b828054620004809062000803565b90600052602060002090601f016020900481019282620004a45760008555620004ef565b82601f10620004bf57805160ff1916838001178555620004ef565b82800160010185558215620004ef579182015b82811115620004ef578251825591602001919060010190620004d2565b50620004fd92915062000501565b5090565b5b80821115620004fd576000815560010162000502565b634e487b7160e01b600052604160045260246000fd5b604051601f8201601f191681016001600160401b038111828210171562000559576200055962000518565b604052919050565b60006001600160401b038211156200057d576200057d62000518565b5060051b60200190565b600082601f8301126200059957600080fd5b81516020620005b2620005ac8362000561565b6200052e565b82815260059290921b84018101918181019086841115620005d257600080fd5b8286015b84811015620005ef5780518352918301918301620005d6565b509695505050505050565b600082601f8301126200060c57600080fd5b81516001600160401b0381111562000628576200062862000518565b60206200063e601f8301601f191682016200052e565b82815285828487010111156200065357600080fd5b60005b838110156200067357858101830151828201840152820162000656565b83811115620006855760008385840101525b5095945050505050565b60008060008060808587031215620006a657600080fd5b84516001600160401b0380821115620006be57600080fd5b818701915087601f830112620006d357600080fd5b81516020620006e6620005ac8362000561565b82815260059290921b8401810191818101908b8411156200070657600080fd5b948201945b838610156200073d5785516001600160a01b03811681146200072d5760008081fd5b825294820194908201906200070b565b918a01519198509093505050808211156200075757600080fd5b620007658883890162000587565b94506040870151935060608701519150808211156200078357600080fd5b506200079287828801620005fa565b91505092959194509250565b634e487b7160e01b600052603260045260246000fd5b634e487b7160e01b600052601160045260246000fd5b6000600019821415620007e157620007e1620007b4565b5060010190565b60008219821115620007fe57620007fe620007b4565b500190565b600181811c908216806200081857607f821691505b602082108114156200083a57634e487b7160e01b600052602260045260246000fd5b50919050565b612e4080620008506000396000f3fe6080604052600436106102765760003560e01c8063791a25191161014f578063ac5ae11b116100c1578063ce7c2ac21161007a578063ce7c2ac2146107b7578063d79779b2146107ed578063e33b7de314610823578063e985e9c514610838578063f2fde38b14610881578063f8dcbddb146108a157600080fd5b8063ac5ae11b146106fd578063b88d4fde14610710578063bf332d6114610730578063c45ac05014610750578063c87b56dd14610770578063cbccefb21461079057600080fd5b80639852595c116101135780639852595c1461062457806399d138001461065a5780639b6860c814610687578063a0bcfc7f1461069d578063a22cb465146106bd578063a3f8eace146106dd57600080fd5b8063791a2519146105915780637cb64759146105b15780638b83209b146105d15780638da5cb5b146105f157806395d89b411461060f57600080fd5b8063406072a9116101e85780635be7fde8116101ac5780635be7fde8146104fc5780636352211e146105115780636c0360eb1461053157806370a0823114610546578063715018a614610566578063734c66bd1461057b57600080fd5b8063406072a91461044357806342842e0e1461048957806348b75044146104a95780634b11faaf146104c95780634f6ccce7146104dc57600080fd5b806318160ddd1161023a57806318160ddd1461039557806319165587146103b857806323b872dd146103d85780632eb4a7ab146103f85780632f745c591461040e5780633a98ef391461042e57600080fd5b806301ffc9a7146102c457806306fdde03146102f9578063081812fc1461031b578063095ea7b314610353578063163e1e611461037557600080fd5b366102bf577f6ef95f06320e7a25a04a175ca677b7052bdd97131872c2192525a629f51be77033604080516001600160a01b0390921682523460208301520160405180910390a1005b600080fd5b3480156102d057600080fd5b506102e46102df3660046126bc565b6108c1565b60405190151581526020015b60405180910390f35b34801561030557600080fd5b5061030e61092e565b6040516102f09190612731565b34801561032757600080fd5b5061033b610336366004612744565b6109c0565b6040516001600160a01b0390911681526020016102f0565b34801561035f57600080fd5b5061037361036e366004612772565b610a04565b005b34801561038157600080fd5b506103736103903660046127e9565b610a92565b3480156103a157600080fd5b506103aa610bac565b6040519081526020016102f0565b3480156103c457600080fd5b506103736103d336600461282a565b610bcb565b3480156103e457600080fd5b506103736103f3366004612847565b610cc1565b34801561040457600080fd5b506103aa60125481565b34801561041a57600080fd5b506103aa610429366004612772565b610ccc565b34801561043a57600080fd5b506008546103aa565b34801561044f57600080fd5b506103aa61045e366004612888565b6001600160a01b039182166000908152600e6020908152604080832093909416825291909152205490565b34801561049557600080fd5b506103736104a4366004612847565b610dc8565b3480156104b557600080fd5b506103736104c4366004612888565b610de3565b6103736104d73660046128c1565b610f03565b3480156104e857600080fd5b506103aa6104f7366004612744565b61119c565b34801561050857600080fd5b50610373611248565b34801561051d57600080fd5b5061033b61052c366004612744565b61127e565b34801561053d57600080fd5b5061030e611290565b34801561055257600080fd5b506103aa61056136600461282a565b61131e565b34801561057257600080fd5b5061037361136c565b34801561058757600080fd5b506103aa60105481565b34801561059d57600080fd5b506103736105ac366004612744565b611380565b3480156105bd57600080fd5b506103736105cc366004612744565b61138d565b3480156105dd57600080fd5b5061033b6105ec366004612744565b61139a565b3480156105fd57600080fd5b506000546001600160a01b031661033b565b34801561061b57600080fd5b5061030e6113ca565b34801561063057600080fd5b506103aa61063f36600461282a565b6001600160a01b03166000908152600b602052604090205490565b34801561066657600080fd5b506103aa61067536600461282a565b60156020526000908152604090205481565b34801561069357600080fd5b506103aa60115481565b3480156106a957600080fd5b506103736106b83660046129a7565b6113d9565b3480156106c957600080fd5b506103736106d83660046129fd565b6113f8565b3480156106e957600080fd5b506103aa6106f836600461282a565b61148e565b61037361070b366004612772565b6114d6565b34801561071c57600080fd5b5061037361072b366004612a2b565b611683565b34801561073c57600080fd5b5061037361074b366004612744565b6116bd565b34801561075c57600080fd5b506103aa61076b366004612888565b6116ca565b34801561077c57600080fd5b5061030e61078b366004612744565b611795565b34801561079c57600080fd5b50600f546107aa9060ff1681565b6040516102f09190612ac0565b3480156107c357600080fd5b506103aa6107d236600461282a565b6001600160a01b03166000908152600a602052604090205490565b3480156107f957600080fd5b506103aa61080836600461282a565b6001600160a01b03166000908152600d602052604090205490565b34801561082f57600080fd5b506009546103aa565b34801561084457600080fd5b506102e4610853366004612888565b6001600160a01b03918216600090815260076020908152604080832093909416825291909152205460ff1690565b34801561088d57600080fd5b5061037361089c36600461282a565b61181e565b3480156108ad57600080fd5b506103736108bc366004612744565b611894565b60006001600160e01b031982166380ac58cd60e01b14806108f257506001600160e01b03198216635b5e139f60e01b145b8061090d57506001600160e01b0319821663780e9d6360e01b145b8061092857506301ffc9a760e01b6001600160e01b03198316145b92915050565b60606002805461093d90612ae8565b80601f016020809104026020016040519081016040528092919081815260200182805461096990612ae8565b80156109b65780601f1061098b576101008083540402835291602001916109b6565b820191906000526020600020905b81548152906001019060200180831161099957829003601f168201915b5050505050905090565b60006109cb826118d2565b6109e8576040516333d1c03960e21b815260040160405180910390fd5b506000908152600660205260409020546001600160a01b031690565b6000610a0f8261127e565b9050806001600160a01b0316836001600160a01b03161415610a445760405163250fdee360e21b815260040160405180910390fd5b336001600160a01b03821614801590610a645750610a628133610853565b155b15610a82576040516367d9dca160e11b815260040160405180910390fd5b610a8d838383611908565b505050565b610a9a611964565b6002600f5460ff166004811115610ab357610ab3612aaa565b11610b055760405162461bcd60e51b815260206004820152601d60248201527f4769667420697320616674657220746865207075626c69632073616c6500000060448201526064015b60405180910390fd5b612710610b10610bac565b610b1b906001612b39565b1115610b5e5760405162461bcd60e51b815260206004820152601260248201527152656163686564206d617820737570706c7960701b6044820152606401610afc565b60005b81811015610a8d57610b9a838383818110610b7e57610b7e612b51565b9050602002016020810190610b93919061282a565b60016119be565b80610ba481612b67565b915050610b61565b6001546001600160801b03600160801b82048116918116919091031690565b6001600160a01b0381166000908152600a6020526040902054610c005760405162461bcd60e51b8152600401610afc90612b82565b6000610c0b8261148e565b905080610c2a5760405162461bcd60e51b8152600401610afc90612bc8565b6001600160a01b0382166000908152600b602052604081208054839290610c52908490612b39565b925050819055508060096000828254610c6b9190612b39565b90915550610c7b905082826119d8565b604080516001600160a01b0384168152602081018390527fdf20fd1e76bc69d672e4814fafb2c449bba3a5369d8359adf9e05e6fde87b056910160405180910390a15050565b610a8d838383611af1565b6000610cd78361131e565b8210610cf6576040516306ed618760e11b815260040160405180910390fd5b6001546001600160801b0316600080805b83811015610dc257600081815260046020908152604091829020825160608101845290546001600160a01b0381168252600160a01b81046001600160401b031692820192909252600160e01b90910460ff161580159282019290925290610d6e5750610dba565b80516001600160a01b031615610d8357805192505b876001600160a01b0316836001600160a01b03161415610db85786841415610db15750935061092892505050565b6001909301925b505b600101610d07565b50600080fd5b610a8d83838360405180602001604052806000815250611683565b6001600160a01b0381166000908152600a6020526040902054610e185760405162461bcd60e51b8152600401610afc90612b82565b6000610e2483836116ca565b905080610e435760405162461bcd60e51b8152600401610afc90612bc8565b6001600160a01b038084166000908152600e6020908152604080832093861683529290529081208054839290610e7a908490612b39565b90915550506001600160a01b0383166000908152600d602052604081208054839290610ea7908490612b39565b90915550610eb89050838383611d0b565b604080516001600160a01b038481168252602082018490528516917f3be5b7a71e84ed12875d241991c70855ac5817d847039e17a9d895c1ceb0f18a910160405180910390a2505050565b323314610f525760405162461bcd60e51b815260206004820152601e60248201527f5468652063616c6c657220697320616e6f7468657220636f6e747261637400006044820152606401610afc565b60105480610f8f5760405162461bcd60e51b815260206004820152600a6024820152690507269636520697320360b41b6044820152606401610afc565b6001600f5460ff166004811115610fa857610fa8612aaa565b14610ff55760405162461bcd60e51b815260206004820152601f60248201527f57686974656c6973742073616c65206973206e6f7420616374697661746564006044820152606401610afc565b611000338484611d5d565b61103e5760405162461bcd60e51b815260206004820152600f60248201526e139bdd081dda1a5d195b1a5cdd1959608a1b6044820152606401610afc565b3360009081526015602052604090205460059061105c908690612b39565b11156110bf5760405162461bcd60e51b815260206004820152602c60248201527f596f752063616e206f6e6c79206765742035204e4654206f6e2074686520576860448201526b6974656c6973742053616c6560a01b6064820152608401610afc565b610fa0846110cb610bac565b6110d59190612b39565b11156111195760405162461bcd60e51b815260206004820152601360248201527213585e081cdd5c1c1b1e48195e18d959591959606a1b6044820152606401610afc565b6111238482612c13565b3410156111665760405162461bcd60e51b81526020600482015260116024820152704e6f7420656e6f756768742066756e647360781b6044820152606401610afc565b3360009081526015602052604081208054869290611185908490612b39565b90915550611195905085856119be565b5050505050565b6001546000906001600160801b031681805b8281101561122e57600081815260046020908152604091829020825160608101845290546001600160a01b0381168252600160a01b81046001600160401b031692820192909252600160e01b90910460ff16151591810182905290611225578583141561121e5750949350505050565b6001909201915b506001016111ae565b506040516329c8c00760e21b815260040160405180910390fd5b611250611964565b60005b60145481101561127b576112696103d38261139a565b8061127381612b67565b915050611253565b50565b600061128982611dde565b5192915050565b6013805461129d90612ae8565b80601f01602080910402602001604051908101604052809291908181526020018280546112c990612ae8565b80156113165780601f106112eb57610100808354040283529160200191611316565b820191906000526020600020905b8154815290600101906020018083116112f957829003601f168201915b505050505081565b60006001600160a01b038216611347576040516323d3ad8160e21b815260040160405180910390fd5b506001600160a01b03166000908152600560205260409020546001600160401b031690565b611374611964565b61137e6000611f02565b565b611388611964565b601155565b611395611964565b601255565b6000600c82815481106113af576113af612b51565b6000918252602090912001546001600160a01b031692915050565b60606003805461093d90612ae8565b6113e1611964565b80516113f490601390602084019061260d565b5050565b6001600160a01b0382163314156114225760405163b06307db60e01b815260040160405180910390fd5b3360008181526007602090815260408083206001600160a01b03871680855290835292819020805460ff191686151590811790915590519081529192917f17307eab39ab6107e8899845ad3d59bd9653f200f220920489ca2b5937696c31910160405180910390a35050565b60008061149a60095490565b6114a49047612b39565b90506114cf83826114ca866001600160a01b03166000908152600b602052604090205490565b611f52565b9392505050565b3233146115255760405162461bcd60e51b815260206004820152601e60248201527f5468652063616c6c657220697320616e6f7468657220636f6e747261637400006044820152606401610afc565b601154806115625760405162461bcd60e51b815260206004820152600a6024820152690507269636520697320360b41b6044820152606401610afc565b6002600f5460ff16600481111561157b5761157b612aaa565b146115c85760405162461bcd60e51b815260206004820152601c60248201527f5075626c69632073616c65206973206e6f7420616374697661746564000000006044820152606401610afc565b6115d56064612710612c32565b826115de610bac565b6115e89190612b39565b111561162c5760405162461bcd60e51b815260206004820152601360248201527213585e081cdd5c1c1b1e48195e18d959591959606a1b6044820152606401610afc565b6116368282612c13565b3410156116795760405162461bcd60e51b81526020600482015260116024820152704e6f7420656e6f756768742066756e647360781b6044820152606401610afc565b610a8d83836119be565b61168e848484611af1565b61169a84848484611f90565b6116b7576040516368d2bf6b60e11b815260040160405180910390fd5b50505050565b6116c5611964565b601055565b6001600160a01b0382166000908152600d602052604081205481906040516370a0823160e01b81523060048201526001600160a01b038616906370a0823190602401602060405180830381865afa158015611729573d6000803e3d6000fd5b505050506040513d601f19601f8201168201806040525081019061174d9190612c49565b6117579190612b39565b6001600160a01b038086166000908152600e602090815260408083209388168352929052205490915061178d9084908390611f52565b949350505050565b60606117a0826118d2565b6117ec5760405162461bcd60e51b815260206004820152601f60248201527f55524920717565727920666f72206e6f6e6578697374656e7420746f6b656e006044820152606401610afc565b60136117f78361208f565b604051602001611808929190612c7e565b6040516020818303038152906040529050919050565b611826611964565b6001600160a01b03811661188b5760405162461bcd60e51b815260206004820152602660248201527f4f776e61626c653a206e6577206f776e657220697320746865207a65726f206160448201526564647265737360d01b6064820152608401610afc565b61127b81611f02565b61189c611964565b8060048111156118ae576118ae612aaa565b600f805460ff191660018360048111156118ca576118ca612aaa565b021790555050565b6001546000906001600160801b031682108015610928575050600090815260046020526040902054600160e01b900460ff161590565b60008281526006602052604080822080546001600160a01b0319166001600160a01b0387811691821790925591518593918516917f8c5be1e5ebec7d5bd14f71427d1e84f3dd0314c0f7b2291e5b200ac8c7c3b92591a4505050565b6000546001600160a01b0316331461137e5760405162461bcd60e51b815260206004820181905260248201527f4f776e61626c653a2063616c6c6572206973206e6f7420746865206f776e65726044820152606401610afc565b6113f482826040518060200160405280600081525061218c565b80471015611a285760405162461bcd60e51b815260206004820152601d60248201527f416464726573733a20696e73756666696369656e742062616c616e63650000006044820152606401610afc565b6000826001600160a01b03168260405160006040518083038185875af1925050503d8060008114611a75576040519150601f19603f3d011682016040523d82523d6000602084013e611a7a565b606091505b5050905080610a8d5760405162461bcd60e51b815260206004820152603a60248201527f416464726573733a20756e61626c6520746f2073656e642076616c75652c207260448201527f6563697069656e74206d617920686176652072657665727465640000000000006064820152608401610afc565b6000611afc82611dde565b80519091506000906001600160a01b0316336001600160a01b03161480611b2a57508151611b2a9033610853565b80611b45575033611b3a846109c0565b6001600160a01b0316145b905080611b6557604051632ce44b5f60e11b815260040160405180910390fd5b846001600160a01b031682600001516001600160a01b031614611b9a5760405162a1148160e81b815260040160405180910390fd5b6001600160a01b038416611bc157604051633a954ecd60e21b815260040160405180910390fd5b611bd16000848460000151611908565b6001600160a01b038581166000908152600560209081526040808320805467ffffffffffffffff198082166001600160401b0392831660001901831617909255898616808652838620805493841693831660019081018416949094179055898652600490945282852080546001600160e01b031916909417600160a01b429092169190910217909255908601808352912054909116611cc4576001546001600160801b0316811015611cc457825160008281526004602090815260409091208054918601516001600160401b0316600160a01b026001600160e01b03199092166001600160a01b03909316929092171790555b5082846001600160a01b0316866001600160a01b03167fddf252ad1be2c89b69c2b068fc378daa952ba7f163c4a11628f55a4df523b3ef60405160405180910390a4611195565b604080516001600160a01b038416602482015260448082018490528251808303909101815260649091019091526020810180516001600160e01b031663a9059cbb60e01b179052610a8d908490612199565b600061178d611da5856040516bffffffffffffffffffffffff19606083901b166020820152600090603401604051602081830303815290604052805190602001209050919050565b84848080602002602001604051908101604052809392919081815260200183836020028082843760009201919091525061226b92505050565b604080516060810182526000808252602082018190529181019190915260015482906001600160801b0316811015611ee957600081815260046020908152604091829020825160608101845290546001600160a01b0381168252600160a01b81046001600160401b031692820192909252600160e01b90910460ff16151591810182905290611ee75780516001600160a01b031615611e7e579392505050565b5060001901600081815260046020908152604091829020825160608101845290546001600160a01b038116808352600160a01b82046001600160401b031693830193909352600160e01b900460ff1615159281019290925215611ee2579392505050565b611e7e565b505b604051636f96cda160e11b815260040160405180910390fd5b600080546001600160a01b038381166001600160a01b0319831681178455604051919092169283917f8be0079c531659141344cd1fd0a4f28419497f9722a3daafe3b4186f6b6457e09190a35050565b6008546001600160a01b0384166000908152600a602052604081205490918391611f7c9086612c13565b611f869190612d4f565b61178d9190612c32565b60006001600160a01b0384163b1561208457604051630a85bd0160e11b81526001600160a01b0385169063150b7a0290611fd4903390899088908890600401612d63565b6020604051808303816000875af192505050801561200f575060408051601f3d908101601f1916820190925261200c91810190612da0565b60015b61206a573d80801561203d576040519150601f19603f3d011682016040523d82523d6000602084013e612042565b606091505b508051612062576040516368d2bf6b60e11b815260040160405180910390fd5b805181602001fd5b6001600160e01b031916630a85bd0160e11b14905061178d565b506001949350505050565b6060816120b35750506040805180820190915260018152600360fc1b602082015290565b8160005b81156120dd57806120c781612b67565b91506120d69050600a83612d4f565b91506120b7565b6000816001600160401b038111156120f7576120f761291c565b6040519080825280601f01601f191660200182016040528015612121576020820181803683370190505b5090505b841561178d57612136600183612c32565b9150612143600a86612dbd565b61214e906030612b39565b60f81b81838151811061216357612163612b51565b60200101906001600160f81b031916908160001a905350612185600a86612d4f565b9450612125565b610a8d838383600161227a565b60006121ee826040518060400160405280602081526020017f5361666545524332303a206c6f772d6c6576656c2063616c6c206661696c6564815250856001600160a01b03166124029092919063ffffffff16565b805190915015610a8d578080602001905181019061220c9190612dd1565b610a8d5760405162461bcd60e51b815260206004820152602a60248201527f5361666545524332303a204552433230206f7065726174696f6e20646964206e6044820152691bdd081cdd58d8d9595960b21b6064820152608401610afc565b60006114cf8260125485612411565b6001546001600160801b03166001600160a01b0385166122ac57604051622e076360e81b815260040160405180910390fd5b836122ca5760405163b562e8dd60e01b815260040160405180910390fd5b6001600160a01b038516600081815260056020908152604080832080546001600160801b031981166001600160401b038083168c0181169182176801000000000000000067ffffffffffffffff1990941690921783900481168c018116909202179091558584526004909252822080546001600160e01b031916909317600160a01b42909216919091021790915581905b858110156123dc5760405182906001600160a01b038916906000907fddf252ad1be2c89b69c2b068fc378daa952ba7f163c4a11628f55a4df523b3ef908290a48380156123b257506123b06000888488611f90565b155b156123d0576040516368d2bf6b60e11b815260040160405180910390fd5b6001918201910161235b565b50600180546001600160801b0319166001600160801b0392909216919091179055611195565b606061178d8484600085612427565b60008261241e8584612558565b14949350505050565b6060824710156124885760405162461bcd60e51b815260206004820152602660248201527f416464726573733a20696e73756666696369656e742062616c616e636520666f6044820152651c8818d85b1b60d21b6064820152608401610afc565b6001600160a01b0385163b6124df5760405162461bcd60e51b815260206004820152601d60248201527f416464726573733a2063616c6c20746f206e6f6e2d636f6e74726163740000006044820152606401610afc565b600080866001600160a01b031685876040516124fb9190612dee565b60006040518083038185875af1925050503d8060008114612538576040519150601f19603f3d011682016040523d82523d6000602084013e61253d565b606091505b509150915061254d8282866125a5565b979650505050505050565b600081815b845181101561259d576125898286838151811061257c5761257c612b51565b60200260200101516125de565b91508061259581612b67565b91505061255d565b509392505050565b606083156125b45750816114cf565b8251156125c45782518084602001fd5b8160405162461bcd60e51b8152600401610afc9190612731565b60008183106125fa5760008281526020849052604090206114cf565b60008381526020839052604090206114cf565b82805461261990612ae8565b90600052602060002090601f01602090048101928261263b5760008555612681565b82601f1061265457805160ff1916838001178555612681565b82800160010185558215612681579182015b82811115612681578251825591602001919060010190612666565b5061268d929150612691565b5090565b5b8082111561268d5760008155600101612692565b6001600160e01b03198116811461127b57600080fd5b6000602082840312156126ce57600080fd5b81356114cf816126a6565b60005b838110156126f45781810151838201526020016126dc565b838111156116b75750506000910152565b6000815180845261271d8160208601602086016126d9565b601f01601f19169290920160200192915050565b6020815260006114cf6020830184612705565b60006020828403121561275657600080fd5b5035919050565b6001600160a01b038116811461127b57600080fd5b6000806040838503121561278557600080fd5b82356127908161275d565b946020939093013593505050565b60008083601f8401126127b057600080fd5b5081356001600160401b038111156127c757600080fd5b6020830191508360208260051b85010111156127e257600080fd5b9250929050565b600080602083850312156127fc57600080fd5b82356001600160401b0381111561281257600080fd5b61281e8582860161279e565b90969095509350505050565b60006020828403121561283c57600080fd5b81356114cf8161275d565b60008060006060848603121561285c57600080fd5b83356128678161275d565b925060208401356128778161275d565b929592945050506040919091013590565b6000806040838503121561289b57600080fd5b82356128a68161275d565b915060208301356128b68161275d565b809150509250929050565b600080600080606085870312156128d757600080fd5b84356128e28161275d565b93506020850135925060408501356001600160401b0381111561290457600080fd5b6129108782880161279e565b95989497509550505050565b634e487b7160e01b600052604160045260246000fd5b60006001600160401b038084111561294c5761294c61291c565b604051601f8501601f19908116603f011681019082821181831017156129745761297461291c565b8160405280935085815286868601111561298d57600080fd5b858560208301376000602087830101525050509392505050565b6000602082840312156129b957600080fd5b81356001600160401b038111156129cf57600080fd5b8201601f810184136129e057600080fd5b61178d84823560208401612932565b801515811461127b57600080fd5b60008060408385031215612a1057600080fd5b8235612a1b8161275d565b915060208301356128b6816129ef565b60008060008060808587031215612a4157600080fd5b8435612a4c8161275d565b93506020850135612a5c8161275d565b92506040850135915060608501356001600160401b03811115612a7e57600080fd5b8501601f81018713612a8f57600080fd5b612a9e87823560208401612932565b91505092959194509250565b634e487b7160e01b600052602160045260246000fd5b6020810160058310612ae257634e487b7160e01b600052602160045260246000fd5b91905290565b600181811c90821680612afc57607f821691505b60208210811415612b1d57634e487b7160e01b600052602260045260246000fd5b50919050565b634e487b7160e01b600052601160045260246000fd5b60008219821115612b4c57612b4c612b23565b500190565b634e487b7160e01b600052603260045260246000fd5b6000600019821415612b7b57612b7b612b23565b5060010190565b60208082526026908201527f5061796d656e7453706c69747465723a206163636f756e7420686173206e6f2060408201526573686172657360d01b606082015260800190565b6020808252602b908201527f5061796d656e7453706c69747465723a206163636f756e74206973206e6f742060408201526a191d59481c185e5b595b9d60aa1b606082015260800190565b6000816000190483118215151615612c2d57612c2d612b23565b500290565b600082821015612c4457612c44612b23565b500390565b600060208284031215612c5b57600080fd5b5051919050565b60008151612c748185602086016126d9565b9290920192915050565b600080845481600182811c915080831680612c9a57607f831692505b6020808410821415612cba57634e487b7160e01b86526022600452602486fd5b818015612cce5760018114612cdf57612d0c565b60ff19861689528489019650612d0c565b60008b81526020902060005b86811015612d045781548b820152908501908301612ceb565b505084890196505b505050505050612d30612d1f8286612c62565b64173539b7b760d91b815260050190565b95945050505050565b634e487b7160e01b600052601260045260246000fd5b600082612d5e57612d5e612d39565b500490565b6001600160a01b0385811682528416602082015260408101839052608060608201819052600090612d9690830184612705565b9695505050505050565b600060208284031215612db257600080fd5b81516114cf816126a6565b600082612dcc57612dcc612d39565b500690565b600060208284031215612de357600080fd5b81516114cf816129ef565b60008251612e008184602087016126d9565b919091019291505056fea26469706673582212204aaa10f07d88d14a4139880a05dde18629de0407598bb2088bdde4eec1d2b82664736f6c634300080c0033",
  "linkReferences": {},
  "deployedLinkReferences": {}
}